:020000040800F2
:1000000040520010D1650008551F0008571F000816
:100010005B1F00085F1F0008631F0008000000004E
:10002000000000000000000000000000671F000842
:10003000691F0008000000006B1F0008F11E000887
:10004000EB650008EB650008EB650008EB65000850
:10005000EB650008EB650008552B0008EB65000810
:10006000EB650008EB650008EB650008EB65000830
:10007000EB650008EB650008EB650008EB65000820
:10008000EB650008EB650008EB650008EB65000810
:10009000EB650008EB650008EB650008EB65000800
:1000A000EB650008EB650008EB650008EB650008F0
:1000B000EB650008EB650008EB650008EB650008E0
:1000C000EB650008EB650008EB650008EB650008D0
:1000D000EB650008EB650008EB650008A524000847
:1000E000EB650008EB650008EB650008096800088F
:1000F000EB650008EB650008EB650008EB650008A0
:10010000EB650008EB650008EB650008EB6500088F
:10011000EB650008EB650008EB650008EB6500087F
:10012000EB650008EB650008EB650008EB6500086F
:10013000EB650008EB650008EB650008EB6500085F
:10014000EB650008EB650008EB6500086D1F000813
:10015000EB650008EB650008EB650008EB6500083F
:10016000EB650008EB650008EB650008EB6500082F
:10017000EB650008EB650008EB650008EB6500081F
:10018000EB650008EB65000800F002F800F06DF880
:100190000AA090E8000C82448344AAF10107DA45E2
:1001A00001D100F062F8AFF2090EBAE80F0013F0C7
:1001B000010F18BFFB1A43F001031847FC1E010092
:1001C0001C1F01000A444FF0000C10F8013B13F013
:1001D000070408BF10F8014B1D1108BF10F8015BA0
:1001E000641E05D010F8016B641E01F8016BF9D193
:1001F00013F0080F1EBF10F8014BAD1C0C1B09D1EA
:100200006D1E58BF01F801CBFAD505E014F8016B5B
:1002100001F8016B6D1EF9D59142D6D370470000ED
:100220000023002400250026103A28BF78C1FBD8FF
:10023000520728BF30C148BF0B60704778290FF0C4
:100240003F8073290FF02B83002070471FB511F0FA
:1002500086FB0FF071FD04000020002110F0C0FDAE
:10026000401C60601FBD10B510BD0FF02DFD114684
:10027000FFF7ECFF05F00AF80FF054FD03B4FFF7A9
:10028000F2FF03BC0FF09CFD1CB556A103C9CDE9DC
:1002900000014FF0FF3055490860042054490880A0
:1002A000702000F041F93F21002000F0D2F8322008
:1002B00001F0BCFF1921112000F0CBF80021012032
:1002C00000F0C7F80121022000F0C3F8032108461E
:1002D00000F0BFF80021042000F0BBF84548807909
:1002E00000F07F01052000F0B4F82621062000F080
:1002F000B0F805226946002000F0D8F9002407E094
:100300001DF804001130C0B20DF80400601CC4B226
:10031000052CF5DB0521684600F0B9F91CBD01206C
:1003200032490860704731480078704700202F49F3
:100330000860704710B52D480068012800D110BD35
:1003400004202B490880012000F00DFA00F0BAF8D3
:1003500000F0ACF8702000F0E7F804202449891E72
:10036000088001202149086000BFE8E770B5044615
:10037000002121611E480A38006800F0010008B120
:10038000002070BD04F1140000F0FEF80546202D99
:1003900007DDD4F81401401CC4F814014FF0FF30FD
:1003A000EFE725612846ECE710B504460420104924
:1003B0000880002000F0D7F900F078F8217C04F1E3
:1003C000140000F028F904200949891E088014202F
:1003D00001F017FF042006490880FFF7A7FF2069F6
:1003E00010BD0000009845711000000000000010D2
:1003F0001A0C0240D804001070B504460220E349EC
:100400000880204605F0FCF9FF2005F0F9F90546C3
:100410000220DE49891E0880284670BD2DE9F04182
:1004200004460E4617460220D8490880204605F0AB
:10043000E7F9002505E0FF2005F0E2F97855681C92
:10044000C5B2B542F7DB0220D049891E0880BDE85D
:10045000F08170B504460D460220CC49088044F076
:10046000200005F0CDF9284605F0CAF90220C74959
:10047000891E088070BD2DE9F04105460E461746DD
:100480000220C249088045F0200005F0B9F9002497
:1004900004E0305D05F0B4F9601CC4B2BC42F8DB86
:1004A0000220BA49891E0880BDE8F08110B50220FB
:1004B000B6490880E12005F0A3F90220B349891E5E
:1004C000088010BD10B50220B0490880E22005F078
:1004D00097F90220AD49891E088010BD10B5022091
:1004E000AA490880E32005F08BF90220A749891E5C
:1004F000088010BD10B50220A4490880FF2005F037
:100500007FF90220A149891E088010BD10B5022084
:100510009E490880072005F073F9044602209B4994
:10052000891E0880204610BD70B50446002504F0E1
:100530007004FFF7EBFF054602209449088027204E
:1005400005F05EF944EA050005F05AF902208F49EA
:10055000891E0880FFF7DAFF70BD10B5FFF7D6FFE0
:1005600000F0700010BD10B502208849088060209E
:1005700005F046F9FF2005F043F9044602208349BF
:10058000891E0880204610BD70B50646FFF7EBFFB8
:100590000446202C03DDFFF795FF212070BD0CB928
:1005A0000020FBE7022079490880612005F028F946
:1005B000002505E0FF2005F023F97055681CC5B241
:1005C000A542F7DB02207149891E0880FFF77AFFF8
:1005D0002046E3E72DE9F04105460E46202E01DDD9
:1005E000202000E030460746FFF760FF0220674901
:1005F0000880A02005F004F9002404E0285D05F03F
:10060000FFF8601CC4B2BC42F8DB02205F49891EBF
:100610000880BDE8F08170B505460C46202C00DC52
:1006200004B970BD022059490880B02005F0E8F8EF
:1006300003E015F8010B05F0E3F8201EA4F1010119
:10064000CCB2F6D102205149891E088000BFE8E7EC
:100650002DE9F04105460E46202E01DD202000E068
:1006600030460746022049490880A82005F0C8F80E
:10067000002404E0285D05F0C3F8601CC4B2BC424D
:10068000F8DB02204149891E0880BDE8F08170B581
:1006900004460D46052D01DD052000E028460646EE
:1006A000324621461020FFF7E6FE70BD2DE9F041ED
:1006B00004460E461546052D01DD052000E02846BE
:1006C0000746052C01DD052000E02046804608F1A4
:1006D0000A01C8B23A463146FFF7CDFEBDE8F081C7
:1006E00070B505460620FFF787FE044624F028046F
:1006F00015B944F0200408E0012D02D124F02804AB
:1007000003E0022D01D144F0080421460620FFF742
:10071000A0FE70BD70B505460620FFF76DFE20F007
:10072000070435B1012D06D0022D07D0032D0BD1C2
:1007300007E000BF09E044F0020406E044F00404CE
:1007400003E044F0060400E000BF00BF214606209D
:10075000FFF77FFE70BD10B5044604F07F01052051
:10076000FFF777FE10BD70B504460020FFF744FE8A
:10077000054614B925F0010503E0012C01D145F02F
:10078000010529460020FFF764FE70BD1A0C0240E7
:1007900070B50446FF20207001206070F748007893
:1007A00000F00F00A07004F0E8FF054604F0CEFF53
:1007B000064671B6F14880F82D5180F82C6190F80A
:1007C0002D01FF2803D1FE20EC4981F82D01EB48D3
:1007D00090F82D01E070E94890F82C01FF2803D132
:1007E000FE20E64981F82C01E44890F82C012071A4
:1007F000E24890F82D0100EE100AB8EE400ADFED55
:10080000E00A20EE200ADD4880ED4D0A90F82C0128
:1008100000EE100AB8EE400ADFEDDA0A20EE200AF8
:10082000D64880ED4C0A61B605F088F8C007000E86
:1008300060710120D4490870002070BD10B50446D5
:1008400004F07FFED1490860D1480078022805D124
:100850000120D04908600020CD490870CC480078BC
:10086000012804D1CC4908600020C9490870C74854
:10087000006828BBC748006801280ED1C749086036
:100880000020C4490860C6490860C6480068401C8A
:10089000C44908600120BC490870BF4800680128AD
:1008A0000ED1C14908600020BB490860BC490860FE
:1008B000BC480068401CBB4908600120B249087070
:1008C000B7480068052823DBB4480068012802D136
:1008D0000020B2490860B4480068012802D1002015
:1008E000B1490860B1480068A849096888420BD03E
:1008F0000120AB490860AB480068401CA94908606A
:100900000120A14908700BE000209F49087007E012
:10091000A3480068401CA249086001209A49087059
:10092000A04800687F2802D100209E490860FF206F
:100930002070022060709148007800F00F00A070D5
:100940009248007880019549097800EB411096495A
:10095000097800EB0110E07092480078207190480F
:10096000007860718948006890490860002010BDD7
:1009700008B50246507800909DF8000000F0F000A5
:1009800000909DF80000001100909DF8000010B14B
:10099000072804D101E0002008BD0720FCE74FF044
:1009A000FF30F9E72DE9F05F04460D460027B84611
:1009B00004B11DB94FF0FF30BDE8F09F6F480068EB
:1009C00008280CDD687800F00F006C4909780939B7
:1009D00001228A40104068B94FF0FF30ECE7A87858
:1009E00066490978491E01228A40104010B94FF02B
:1009F000FF30E1E74FF4FA7001F038FC6C4A03C2B3
:100A000000265E480068092813DAB0460BE0A87893
:100A1000012101FA08F1084008B1701CC6B208F1C2
:100A2000010000F0FF0855480068401E4045EEDC1C
:100A300027E04FF000080BE0A878012101FA08F147
:100A4000084008B1701CC6B208F1010000F0FF08B0
:100A5000B8F1080FF0DB4FF000080DE0687800F007
:100A60000F01012000FA08F0014009B1701CC6B264
:100A700008F1010000F0FF084048006809384045CF
:100A8000ECDC06EB4600032101EB400000F0FF0820
:100A90003A480068206006EB46004000C01C2F5C0E
:100AA000C7F30110606007F0800010B16068404239
:100AB00000E06068606006EB460040000830285C9B
:100AC00000F07F0706EB46004000C01C285C00F0E9
:100AD000400030B17F2F02DB7F20E06007E0E7605D
:100AE00005E07F2F02DB7F20A06000E0A76006EB1F
:100AF00046004000401D2F5C3809206106EB46008F
:100B00004000001D15F8009009F01F004FF6FF711E
:100B100001EA0019206940EA0900206106EB46005D
:100B20004000001D2F5C07F0200010B120694042FA
:100B300000E02069206106EB46004000801D2F5C2C
:100B4000B808606106EB46004000401D15F800A0A3
:100B50000AF007004FF6FF7101EA801A606940EA67
:100B60000A00606106EB46004000401D2F5C07F064
:100B7000080010B1606940421DE01BE0D80400107D
:100B80006666CA3DEB6A243F0400001014000010A2
:100B9000B8000010180000101C0000102000001009
:100BA0002C0000102800001024000010100000107D
:100BB000680000106069606106EB46004000C01DDF
:100BC0002F5CA76106EB46004000801D15F800B0C1
:100BD0000BF001004FF6FF7101EA002BA06940EA1B
:100BE0000B00A06106EB46004000801D2F5C07F063
:100BF000020010B1A069404200E0A069A06100209D
:100C0000DAE62DE9FF5F04460D4600270026B346CD
:100C100004B125B94FF0FF3004B0BDE8F09FFE48A5
:100C2000006808280CDD687800F00F00FA490978A0
:100C3000093901228A40104068B94FF0FF30EBE7D4
:100C4000A878F5490978491E01228A40104010B958
:100C50004FF0FF30E0E74FF4FA7001F007FBEF4A86
:100C600003C2ED4800682060EF78C7F301106060B0
:100C700007F0800010B16068404200E0606860608A
:100C8000C7F3801040B1287A7F2802DD7F20E06022
:100C90000AE0287AE06007E0287A7F2802DD7F20DA
:100CA000A06001E0287AA060AF793809206195F84A
:100CB000058008F01F004FF6FF7101EA0018206957
:100CC000404420616F7907F0200010B12069404254
:100CD00000E020692061EF79B808606195F806901E
:100CE00009F007004FF6FF7101EA80196069484476
:100CF0006061AF7907F0080010B16069404200E020
:100D0000606960612F7AA76195F807A00AF0010079
:100D10004FF6FF7101EA002AA0695044A061EF7903
:100D200007F0020010B1A069404200E0A069A06194
:100D3000002606E006F10900285C03A98855701C0E
:100D4000C6B2042EF6DBB648039901600068029033
:100D5000002606E006F10D00285C03A98855701CEA
:100D6000C6B2042EF6DBAF4803990160006801901B
:100D7000002606E006F11100285C03A98855701CC6
:100D8000C6B2042EF6DBA848039901600068009003
:100D900000260DE0A049083101EB86109DED001AF8
:100DA000DDED010A9DED020A00F02FFB701CC6B2BA
:100DB000042EEFDB00202FE72DE9FC5F04460D46F3
:100DC00093460026002704B11DB94FF0FF30BDE85F
:100DD000FC9F9148006808280CDD687800F00F003F
:100DE0008D490978093901228A40104068B94FF0CD
:100DF000FF30ECE7A87888490978491E01228A402B
:100E0000104010B94FF0FF30E1E74FF4FA7001F0F5
:100E10002DFA824A03C28048006820602E7906F0CD
:100E20003000606006F0800010B16068404200E071
:100E30006068606006F0400040B1287A7F2802DDDB
:100E40007F20E0600AE0287AE06007E0287A7F28C7
:100E500002DD7F20A06001E0287AA060AE79300931
:100E6000206195F8058008F01F004FF6FF7101EA38
:100E700000182069404420616E7906F0200010B10E
:100E80002069404200E020692061EE79B00860618D
:100E900095F8069009F007004FF6FF7101EA8019F6
:100EA000606948446061AE7906F0080010B160697D
:100EB000404200E0606960612E7AA66195F807A063
:100EC0000AF001004FF6FF7101EA002AA0695044C0
:100ED000A061EE7906F0020010B1A069404200E086
:100EE000A069A061002706E007F10B00285C01A9BA
:100EF000C855781CC7B2042FF6DB019800909DED11
:100F0000000A4A4880ED000A002060E730B5034639
:100F10000C4603B114B94FF0FF3030BD002106E09C
:100F2000585C655CA84201D00020F6E7491C91425C
:100F3000F6DB0120F1E7F0B5054600242F46002638
:100F40000DE0082239463A48FFF7E0FFC4B20CB979
:100F5000083703E0012C01D12046F0BD761C202E7D
:100F6000EFDB2046F9E770B504460D4604B115B92C
:100F70004FF0FF3070BD687D00F0800068B1002048
:100F80002C4908602C490880687D00F07F00401CD7
:100F9000A4F80001012084F8020194F8020120B3B2
:100FA00025480088401C00B22349088000260BE039
:100FB00006F11600295C1F4802680068401C1D4BA2
:100FC0001860A154701CC6B2022EF1DBB4F8000107
:100FD0001949B1F90010884207D1012084F80301B2
:100FE000002084F802011449088042F2107001F0D8
:100FF0003DF9124A03C20120114908704FF4827171
:1010000020460EF06CFB0B480068FF2802D300203E
:10101000084908600020ADE7D804001068000010FF
:10102000300000103400001038000010C400001020
:101030000E010010080000103C00001070000010AD
:101040000C00001001460022002000BF04E08B5C71
:101050000344D8B2531CDAB2202AF8D391F82030D6
:101060000344D8B2704710B50446222120460EF042
:1010700036FB002020706070A070E07020716071FD
:10108000A071E07120726072A072E0720320207380
:10109000122060737F20A0730020E0735A2084F830
:1010A00020002046FFF7CEFF84F8210010BD10B5C8
:1010B0000446222120460EF012FB002020706070B2
:1010C000A070E07020716071A071E0712072607298
:1010D000A072E07203202073122060737F20A0733F
:1010E0000120E0735A2084F820002046FFF7AAFF71
:1010F00084F8210010BD70B50446222120460EF070
:10110000EEFA22220021204603F01FFD2046FFF7C1
:1011100099FF054694F820005A2803D194F821003D
:10112000A84207D02046FFF79EFF2222002120463A
:1011300003F09AFC002070BD00B589B024216846F8
:101140000EF0EFFA6846FFF7B2FF22220021684650
:1011500003F08AFC002009B000BD0000014601EE4A
:10116000901AB8EEE12ADFEDB42AC2EE221ADFEDC2
:10117000B32A80EE222ADFEDB22A42EE221AB0EE26
:10118000611AB048006846F2A812B0FBF2F001EE16
:10119000900AF8EE611A61EE811A81EEA02AFDEE46
:1011A000C21A11EE900A70479FEDA70A80ED080A57
:1011B0009FEDA50A80ED090A9FEDA30A80ED0A0ABA
:1011C0000021C162704700B50246F0EE401AC2ED40
:1011D000001AC2ED010A82ED021A31EEA00A30EEC9
:1011E000010A82ED030AB0EE002AB0EE610A02EEB7
:1011F000010A82ED040A82ED051A0020D0629148AE
:10120000006846F2A811B0FBF1F090619FED8F0AE3
:1012100082ED070A1046FFF7C7FF00BDC1627047A5
:101220008161704780ED070A70472DE9F0412DED8F
:10123000028B04460E46B0EE408A0027002594ED4E
:10124000090A84ED0A0A94ED080A84ED090AE06AA5
:10125000801B00EE100AB8EEC00A84ED080A94ED77
:10126000030AD4ED080A20EE200AD4ED040A94ED16
:10127000091A00EEC10AD4ED050A94ED0A1A00EE2F
:10128000810ABDEEC00A10EE108A206B4044206334
:10129000206BA169884202DDA069206307E0206B12
:1012A000A1694942884202DAA0694042206330467F
:1012B00004F0DEF90746002F00DA7F42D4ED070A7A
:1012C000B0EE600AF0EE480A3846FFF747FF0546E1
:1012D000206BA84201DD256305E0206B694288424E
:1012E00001DA68422063206BBDEC028BBDE8F0811F
:1012F00080ED000AC0ED010A80ED021A70EE201A9E
:1013000071EE811AC0ED031AB0EE002AF0EE401A19
:1013100042EE011AC0ED041A80ED051A9621816192
:10132000DFED491AC0ED071ADFED471AC0ED081AC4
:10133000DFED451AC0ED091ADFED431AC0ED0A1AB8
:10134000DFED411AC0ED0B1ADFED3F1AC0ED0C1AAC
:1013500070470146D1ED080AC1ED090AD1ED070A2F
:10136000C1ED080AD1ED0A0A91ED0B1A70EEC10A1F
:10137000C1ED070AD1ED030A91ED071A60EE810A6B
:1013800091ED041AD1ED081A41EE610A91ED051AAA
:10139000D1ED091A41EE210AB0EE600AD1ED0C0A36
:1013A00070EE800AC1ED0C0A91ED0C1AD1ED060A1F
:1013B000F8EEE00AB4EEE01AF1EE10FA06DDD1ED37
:1013C000060AF8EEE00AC1ED0C0A14E091ED0C1AE1
:1013D0008869404200EE900AF8EEE00AB4EEE01AA6
:1013E000F1EE10FA07D28869404200EE900AF8EE5A
:1013F000E00AC1ED0C0AD1ED0C0AFDEEE00A10EE98
:10140000900A70470146086B704780ED000AC0EDF6
:10141000010A80ED021A70EE201A71EE811AC0EDF9
:10142000031AB0EE002AF0EE401A42EE011AC0EDA7
:10143000041A80ED051A70470000BB430000CC4140
:101440009A99993F940000100000000000002F437B
:1014500010B52DED068B90B0FD4B0FCB8DE80F0036
:1014600007A8FFF748FE9DF82800FA4908609DF894
:101470002900F94908609DF82B00F84908709DF88B
:101480002A007F2804DC9DF82A00F549086002E064
:101490007F20F349086006AA04A905A804F0C9F949
:1014A00042F2A001EF480EF03CF99DF81000ED4922
:1014B00008609DF8140088719DF8180000F007007E
:1014C00008719DF8180000F0070006909DF81800BC
:1014D000022802D1012048710DE09DF8180038B1B2
:1014E0009DF81800052803D09DF81800062802D1A1
:1014F0000020DC49487100240DE0DA49083101EB95
:1015000084109FEDD91ADFEDD90A9FEDD90AFFF7B4
:101510005AFE601CC4B2042CEFDB9FEDD31ADFED42
:10152000D50A9FEDD50AD548FFF7E2FE0020CD4948
:10153000A1F808019FEDD20A084680ED430A002475
:101540003EE0684600EB840090ED000ADFEDCD0A36
:1015500080EE201A9FEDCC0A21EE008A18EE100AC8
:1015600010F08CF941EC1A0BB0EE4A0AF0EE6A0A60
:101570000EF09AFFB0EE409AF0EE609A51EC190B23
:101580000FF050FC0146C14840F8241018EE100A34
:1015900010F074F941EC1A0BB0EE4A0AF0EE6A0A48
:1015A0000EF01EFFB0EE409AF0EE609A51EC190B6F
:1015B0000FF038FCB549103141F82400601CC4B26A
:1015C000022CBEDB02243FE0684600EB840090ED75
:1015D000000ADFEDAC0A80EE201A9FEDAB0A21EE87
:1015E000000AB0EE408A18EE100A10F047F941ECFC
:1015F0001A0BB0EE4A0AF0EE6A0A0EF055FFB0EE92
:10160000409AF0EE609A51EC190B0FF00BFC9F49D9
:1016100041F8240018EE100A10F030F941EC1A0BD2
:10162000B0EE4A0AF0EE6A0A0EF0DAFEB0EE409A28
:10163000F0EE609A51EC190B0FF0F4FB9349103166
:1016400041F82400601CC4B2042CBDDB40F203113D
:101650008F48A0F8981000F0D8FF03F0FDFF00209D
:1016600010B0BDEC068B10BD70B504F06FF80446E9
:1016700071B600EE104AB8EE400ADFED860A20EEA1
:10168000200A784880ED4C0A80F82C4161B604F0BD
:1016900057F9C5B28DB180480078052805DA7E4833
:1016A0000078401C7C49087011E005207A490870D8
:1016B00002207A490880284670BD002076490870CB
:1016C0007748007818B902207449891C08800020E6
:1016D000F2E710B573480078401C7249087008465C
:1016E0000078022804DB04F0DFFB00206D4908705D
:1016F0006D48007820B16D480078401C6B49087037
:1017000010BD4FF00108B8F1000F19D00025554861
:101710000079042802DC53480079451C0DE00220C2
:101720005E490880C82000F055FD02205B49891CF5
:101730000880C82000F04EFD6D1E002DEFD100BFC7
:101740004FF47A7000F092FD594A03C24FF47A7058
:1017500000F08CFD574A03C24FF4FA7000F086FD8A
:10176000554A03C2012000F081FD544A03C242F2EF
:10177000107000F07BFD524A03C20F2000F076FD8E
:10178000504A03C204F0F0FBB1E3494903C900F039
:1017900075FD78B34FF47A7000F068FD444A03C2D7
:1017A000FFF762FF02281CD147480068401C4649E9
:1017B00008600846006841F2883188421ADB002040
:1017C00000F065FF00221146104600F0D3FF002113
:1017D000084601F01DF90021084601F038F900BF64
:1017E000FEE739480068002804DD37480068401EDD
:1017F000354908602F4903C900F040FD28B14FF476
:101800007A7000F033FD2B4A03C21648007907288E
:101810001DD2DFE800F014F704BDF5F4F3002B4807
:101820000068401C294908604FF4806028490880FE
:101830001F2364220021084603F055FD00BF234802
:101840000068012846D100202049086046E03CE3BA
:101850007419010840000010440000101701001026
:1018600048000010D8040010000000008FC2F53BB3
:101870000AD7233B1F856B3DCDCC4C3EA004001006
:10188000809A904700003443DB0F49401006001057
:10189000D8240010EB6A243F5500001018080240BD
:1018A00054000010560000104E0000104F000010B1
:1018B0005800001060000010680000108000001048
:1018C0007000001078000010500000108800001018
:1018D000180C02404FF48060FA49088001F0B1FA18
:1018E000F94903C900F0CAFC00B30120F7490870A8
:1018F000002000F0CCFE00221146104600F03AFF16
:101900000021084601F084F80021084601F09FF804
:10191000FEF710FD4FF4FA7000F0A8FCEA4A03C28B
:1019200042F2107000F0A2FCE94A03C2E84903C980
:1019300000F0A4FCE8B10120E4490870002000F0A8
:10194000A6FE00221146104600F014FF00210846B2
:1019500001F05EF80021084601F079F8FEF7EAFC94
:101960000020DC49087042F2107000F07FFCD84A79
:1019700003C2D648007850B1D7480078032806DB68
:10198000FEF7D8FC0020D4490870D04908709DE2C9
:101990004FF48060CB49891E08801F2300226421F8
:1019A000104603F0A0FCCD49CD4808F04CFBCD48D3
:1019B000C07C012805D10020CA49C874084601F03E
:1019C00089FAC94903C900F059FCB0B1C748007889
:1019D00001280DD1C649C74804F0ADFBC44890EDBD
:1019E000050AB1EE400AC44880ED0B0AFFF7B1FCCE
:1019F0000F2000F03BFCBC4A03C267E222E2BBE1DD
:101A000032E0FFE74FF48060AE49891E08801F2353
:101A100064221146104603F066FCB8480068401C7A
:101A2000B64908604FF48070B54908834FF4FA60F6
:101A300000F0D0FB4FF48070B1494883012000F0E2
:101A400026FE41F2883000F0C5FB022000F01FFEA8
:101A500041F2883000F0BEFB032000F018FE41F296
:101A6000883000F0B7FB31E24FF480609549891E61
:101A700008801F2300226421084603F034FCA1489B
:101A8000007801287ED1002400269F48007809288C
:101A900079D2DFE800F078052C5354839CB5FD0023
:101AA000002405E09849601C085C98490855641CAE
:101AB0000A2CF7DB954802F079F80646012E04D18E
:101AC0009349944A1268885404E000209049914A4E
:101AD000126888548F480068401C8E490860084688
:101AE0000068B0F5006F01D1002008603EE10024DD
:101AF00005E08549601C085C87490855641C062C74
:101B0000F7DB854802F0F7F80646012E04D180493C
:101B1000804A1268885404E000207D497D4A12689A
:101B200088547C480068401C7A4908600846006870
:101B3000B0F5006F01D10020086017E116E1774889
:101B4000B0F89800000A7249724A126888547148C5
:101B50000068401C6F490860704890F898006C4914
:101B60006C4A126888546B480068401C69490860D8
:101B70006B4801786648674A126881546548006876
:101B8000401C01E0F7E0F0E06249086008460068A8
:101B9000B0F5006F01D100200860E7E000240BE001
:101BA0006048005D5A495B4A126888545948006889
:101BB000401C58490860641C0C2CF1DB5548006837
:101BC000B0F5006F02D1002052490860CEE04E48C7
:101BD000407846280BD103F07FFA01204C494D4A4A
:101BE000126888544B480068401C4A4908604948BC
:101BF0000068B0F5006F02D100204649086000BFC0
:101C000000200021484A92ED4C0ADFED480A20EE00
:101C1000200ABDEEC00A10EE102A10B2424A92ED20
:101C20004D0ADFED420A20EE200ABDEEC00A10EE9A
:101C3000102A11B2364B374F3F68D855354A1268D3
:101C4000521C344B1A60C0F30722314B314F3F68AE
:101C5000DA55304A1268521C2E4B1A602C4B2D4F0D
:101C60003F68D9552B4A1268521C2A4B1A60C1F39F
:101C70000722274B274F3F68DA55264A1268521C25
:101C8000244B1A601A461268B2F5006F03D100E0C7
:101C900002E000221A6069E000271B4840785328C0
:101CA00046D1194887780021384600F0B1FE01215D
:101CB0001748184A1268815416480068401C154994
:101CC000086049E01A0C0240680000104E00001045
:101CD000700000100C0000104F0000108C34001039
:101CE000FC290010B637001078000010DA00001050
:101CF000282900101C290010A00400108C000010DE
:101D000000000240680100107C290010E428001047
:101D1000DE430010FC02001008010010D82400105F
:101D200000010010FC280010D80400100000C84278
:101D30007A48407843280FD1784887783946002080
:101D400000F085FE01207649764A1268885475486D
:101D50000068401C7349086072480068B0F5006F65
:101D600002D100206F49086000E000BF00BF0020E2
:101D70006D49087000BFA9E06C480068012803D1D4
:101D800000206A49086003E04FF4806068490880D9
:101D900001F057F8674903C900F070FA00B3012059
:101DA00065490870002000F072FC002211461046C0
:101DB00000F0E0FC0021084600F02AFE0021084661
:101DC00000F045FEFEF7B6FA4FF4FA7000F04EFA56
:101DD000584A03C242F2107000F048FA574A03C250
:101DE000564903C900F04AFAE8B101205249087087
:101DF000002000F04CFC00221146104600F0BAFC16
:101E00000021084600F004FE0021084600F01FFEF5
:101E1000FEF790FA00204A49087042F2107000F074
:101E200025FA464A03C24448007850B14548007834
:101E3000032806DBFEF77EFA0020424908703E497F
:101E4000087043E039480068012803D10020374971
:101E5000086003E04FF480603549088000F0F1FF2E
:101E6000344903C900F00AFA00B30120324908706E
:101E7000002000F00CFC00221146104600F07AFC15
:101E80000021084600F0C4FD0021084600F0DFFDF7
:101E9000FEF750FA4FF4FA7000F0E8F9254A03C251
:101EA00042F2107000F0E2F9244A03C2224800789E
:101EB00050B124480078032806DBFEF73BFA0020E7
:101EC000204908701C49087000E000BF00BF1E4890
:101ED000007901280BD01D4903C900F0CFF930B1BA
:101EE00000F01CFB012000F0C1F9184A03C24CE4C9
:101EF00010B517480068401C15490860084600687E
:101F000040F2DC51884204DB01F0DBFC0020104988
:101F1000086000F055F9FFF7DCFB10BD7C290010CC
:101F2000DE430010FC020010680100108800001061
:101F30001A0C0240680000104E00001070000010E3
:101F40000C0000104F000010D8040010800000109A
:101F500090000010704700BFFEE700BFFEE700BF23
:101F6000FEE700BFFEE770477047704710B50548B1
:101F7000007818B904480BF080FC02E003480DF02B
:101F8000C8F810BD16010010FC290010CC37001055
:101F90000CB50020019000907648006840F4803035
:101FA0007449086000BF7348006800F40030009076
:101FB0000198401C0190009818B90198B0F5C06FC5
:101FC000F1D16C48006800F4003010B1012000909D
:101FD00001E0002000900098012846D1654840307B
:101FE000006840F0805063494031086062480068F2
:101FF00040F48040604908605E48083000685D49F0
:10200000083108600846006840F40040086008464F
:10201000006840F4A05008605848091F0860081F75
:10202000006840F08070091F086000BF51480068D8
:1020300000F000700028F9D040F2056050490860B7
:102040004C480830006820F003004A490831086015
:102050000846006840F00200086000BF45480830AC
:10206000006800F00C000828F8D10CBD10B54548F8
:10207000006840F47000434908603E48006840F042
:1020800001003C49086000203A490831086039489D
:1020900000683D490840374908603C48091D086010
:1020A000081F006820F48020091F086000203149C3
:1020B0000C310860FFF76CFF4FF000603149803948
:1020C000086010BD70B50020002202230024022108
:1020D000284D08352D6805F00C0020B1042806D0E5
:1020E000082834D107E02A4D2A4E356033E02A4DC6
:1020F000284E35602FE01F4D2D1D2D68C5F38054EF
:102100001C4D2D1D2D6805F03F0154B1224DB5FB2E
:10211000F1F5184E361D3668C6F3881605FB06F233
:1021200009E01B4DB5FBF1F5124E361D3668C6F3BE
:10213000881605FB06F20F4D2D1D2D68C5F30145D0
:102140006D1C6B00B2FBF3F5124E356003E0104DD1
:10215000104E356000BF00BF064D08352D68C5F331
:1021600003150E4E705D0B4D2D68C540094E356050
:1021700070BD000000380240007000401954400754
:10218000003C024088ED00E0FFFFF6FE1030002426
:102190000024F4009400001040787D0198000010A5
:1021A00008203E49088000208880888108854FF6F5
:1021B000FF70C86201208882002048620882704750
:1021C0003748036840685A1C40F1000034490A60EF
:1021D00048607047F0B571B6314D2F686D683B1897
:1021E00045F1000461B609E071B62D4D29686A68B1
:1021F00061B6CD1A72EB040500D300E0F4E700BF2E
:10220000F0BD2A2141431439244AD1620021516290
:1022100011821146098841F00101118000BF1F4958
:10222000098801F001010029F9D1704700B5034682
:1022300004E06420FFF7E5FF581EC3B2002BF8DC72
:1022400000BD10B503469C0002E0FA20FFF7D9FF5D
:10225000201EA4F101018CB2F7D110BD71B6104857
:102260000268436861B610461946704710B50446C7
:10227000FFF7F4FF001941F1000110BDF0B504466D
:102280000D46FFF7EBFF06460F46311B77EB0500C7
:1022900001D30120F0BD0020FCE700000010004049
:1022A000A80000101FB5044600940020ADF80400FB
:1022B000ADF80600ADF80800ADF80C000C20ADF844
:1022C0000A0069468E4807F09DFA012240F2255126
:1022D0008B4807F0D5FB0121894807F01BFB1FBD88
:1022E00010B5044612E000BF4021854807F0EDFB21
:1022F0000028F9D02178824807F037FB00BF402141
:102300007F4807F0E2FB0028F9D0641C2078002801
:10231000E9D110BD70B504460D4612E000BF402162
:10232000774807F0D2FB0028F9D02178744807F0ED
:102330001CFB00BF4021724807F0C7FB0028F9D002
:10234000641C281EA5F10101CDB2E7D170BDF0B526
:1023500087B006461C2168460DF0E3F952E071B6DD
:1023600068480078072849DB66480078192845DA6C
:102370006548007863490978441A002C01DA04F5AD
:102380008074002700250FE06048025D3846791C04
:102390008FB20DF80020601CC11700EB116109120B
:1023A000A0EB0124681CC5B2564800788542EBDBDF
:1023B0009DF800004F2812D19DF801004B280ED146
:1023C0001922694630460DF013F900204D49087076
:1023D00001204F49087061B6002007B0F0BD9DF89C
:1023E0000000FF2803D161B64FF0FF30F5E7454804
:1023F0000078401E4349087061B603E061B64FF0B3
:10240000FF30EAE7ABE7F0B587B0064649E071B6C2
:102410003C480078192840DB3B4800783949097866
:10242000441A002C01DA04F58074002700250FE01F
:102430003648025D3846791C8FB20DF80020601CCA
:10244000C11700EB11610912A0EB0124681CC5B291
:102450002C4800788542EBDB9DF80000FF2815D161
:102460001922694630460DF0C3F82648007819381D
:102470002449087001202749087027480078401C2B
:102480002549087061B6002007B0F0BD1D480078EE
:10249000401E1C49087061B603E061B64FF0FF3082
:1024A000F2E7B4E710B540F22551154807F023FBD9
:1024B000F0B114480078FF2803DD002011490870AE
:1024C00017E00F4807F055FA10490F4A1278885460
:1024D0000D490978481CC11700EB11610912A0EBE6
:1024E0000121094A117007480078401C054908700D
:1024F00000BF40F22551024807F0F4FA10BD000079
:1025000000480040B0000010B20000107825001014
:10251000B3000010B4000010B6000010002115E058
:10252000FE4800EBC1004068002809DDFB4800EBD5
:10253000C1004068401EF94A02EBC102506004E04D
:102540000020F64A02EBC1025060491C0229E7DB79
:1025500000207047002105E00020F04A02EBC10294
:102560005060491C0229F7DB0020704710B502F0CB
:10257000F2FE02F0FBFE002406E00020E74901EB3A
:10258000C4014860601CC4B2022CF6DB002010BD00
:1025900070B504460D46002D01DC002070BDDF48FB
:1025A00000EBC400406810B14FF0FF30F6E70020A8
:1025B000DB49C1F81C010846D0F81C0118BB15B353
:1025C000D64840F834504FF4FA60D44901EBC401C6
:1025D000486014B1012C0ED106E0284602F0D1FE6D
:1025E0000220D04908700DE0284602F0F2FE0120DA
:1025F000CC49087006E002F0B9FE02F0ACFE4FF0E4
:10260000FF30CBE700BF0020C8E710B5FFF7AEFFF3
:10261000002010BD10B50024C348007800B92AE09E
:10262000BF48D0F8100100280BDDBD48D0F81011CC
:102630000020FFF7ADFF0020B949C1F810010124C7
:1026400003E00020B649C1F81001B548D0F81401E4
:1026500000280BDD2CB9B248D0F814110120FFF787
:1026600097FF0020AE49C1F8140103E00020AC49F7
:10267000C1F8140100BF0020AB49087006200121F9
:102680008140AA4A430942F8231000BF10BD2DE93A
:10269000F0412DED048B05460026002D02DA6C4238
:1026A000012601E02C46002624B900209C49A1F80F
:1026B000080154E0012C18D19D48006846F2A81189
:1026C000B0FBF1F738460EF05FFE41EC190B9FEDC1
:1026D000990B53EC102B0EF0A7FE41EC180B0EF0EB
:1026E0000FFE8F49A1F8080139E0022C18D190485B
:1026F000006846F2A811B0FBF1F738460EF044FE30
:1027000041EC190B9FED8D0B53EC102B0EF08CFE52
:1027100041EC180B0EF0F4FD8149A1F808011EE010
:10272000032C18D18248006846F2A811B0FBF1F7DB
:1027300038460EF029FE41EC190B9FED820B53EC4D
:10274000102B0EF071FE41EC180B0EF0D9FD744900
:10275000A1F8080103E000207149A1F808017049BF
:10276000B1F80801314602F0CEFE0020BDEC048B2A
:10277000BDE8F0812DE9F0412DED048B05460E46B4
:102780001746002400EE105AB8EEC00ADFED6F0ABB
:1027900080EE201AB0EE418A00EE106AB8EEC00A50
:1027A000DFED6A0A80EE201AF0EE418A00EE107A20
:1027B000B8EEC00ADFED660A20EE200ADFED650AFA
:1027C00020EE200AB0EE409A00BF26E0624800EBFF
:1027D000840090ED000A20EE080A5F48103000EBFC
:1027E0008400D0ED000A00EEA80A30EE090A4C4839
:1027F000083000EB841080ED0D0A4948083000EBEA
:102800008410D0ED0D0AB0EE600A02F05DFF44497D
:10281000083101EB84118863641C042CD6DB71B68B
:1028200000240AE03E48083000EB8410816B3C48ED
:10283000083000EB8410C162641C042CF2DB61B62A
:102840000020BDEC048BBDE8F08170B52DED0A8B46
:1028500082B004460D4616469FED400AB0EE409AFF
:102860009FED3E0AF0EE408A9FED3C0AB0EE408AB2
:102870009FED3A0AF0EE409A9FED380AB0EE40AA7A
:1028800000EE104AB8EEC00A3548D0ED000A30EE2E
:10289000600AB0EE409A00EE105AB8EEC00A314815
:1028A000D0ED000A30EE600AF0EE408A29EE090A07
:1028B00008EEA80AB0EE408AB0EE480AB5EEC00AAB
:1028C000F1EE10FA04DDF1EEC00ACDED010A04E0EC
:1028D000DFED220ACDED010A00BF9DED010ADFED1B
:1028E000220A30EE200AB0EE408A89EE080AF0EEA5
:1028F000409A88EE880AB0EE40AAB3EE040AB4EE1D
:10290000C08AF1EE10FA6BDDB3EE040AB0EE408A35
:1029100028EE290AB0EE409A28E000009427001023
:10292000D8040010B8000010BA00001080E100E0E8
:10293000940000109A9999999999D93F0000000044
:102940000000E03F000000000000E83F0000C84237
:10295000CDCCCC3C9EEFA73D10060010000000003F
:10296000C8000010CC0000106F12833A28EE0A0A4B
:10297000F0EE408A7E4890ED000A30EE090A10EE33
:10298000101A08460EF07AFF41EC1C0BB0EE4C0A10
:10299000F0EE6C0A0DF098FCB0EE40BAF0EE60BAC2
:1029A00051EC1B0B0EF07CFC0446724890ED000AC3
:1029B00030EE280A10EE101A08460EF05FFF41ECC8
:1029C0001C0BB0EE4C0AF0EE6C0A0DF07DFCB0EE84
:1029D00040BAF0EE60BA51EC1B0B0EF061FC0546FC
:1029E000324629462046FFF7C5FE00EE104AB8EEF3
:1029F000C00A5F4880ED000A00EE105AB8EEC00A27
:102A00005C4880ED000A002002B0BDEC0A8B70BD6E
:102A100070B504460D465848C0F810418CB10120ED
:102A200004F0FCFC062000F099F802F08AFD012871
:102A300004D121460020FFF7ABFD06E002F08AFD3D
:102A400003E015B90CB902F093FD002070BD70B51C
:102A500005460C464848C0F8144184B1012004F0F2
:102A6000DDFC062000F07AF802F06BFD012803D1AE
:102A70002146FFF78DFD06E002F06CFD03E014B97E
:102A80000DB902F075FD002070BD10B504463B483D
:102A90000068401C39490860084600680F2804DABD
:102AA0004FF480703649088303E04FF48070344956
:102AB0004883324800681E2802DD00202F49086044
:102AC0002D48007998B92F48007801280FD1606807
:102AD000FFF7DDFDD4E90201FFF79AFFD4E9020117
:102AE000FFF7B5FFD4E905122069FFF7AEFE00201D
:102AF00010BD10B5044624480068401C22490860F7
:102B0000084600680F2804DA4FF480701C490883D7
:102B100003E04FF480701A4948831B4800681E2860
:102B200002DD0020184908601348007903280FD1FE
:102B30006068FFF7ACFDD4E90201FFF769FFD4E953
:102B40000201FFF784FFD4E905122069FFF77DFE3B
:102B5000002010BD10B5FFF75DFD10BD00F01F0295
:102B600001219140094A430942F8231070470000AF
:102B7000C8000010CC000010D8040010D0000010D5
:102B8000000002400C000010D400001080E200E0C1
:102B900010B54FF48070FE49C8600021FC48016107
:102BA000FC48FB494860FC488860FC4808600020FD
:102BB000C1F81401FDF768FBFDF7BCFBFDF7AFFBA7
:102BC000002010BD70B51921F1480161F44800786A
:102BD00000287DD1F348C078C0F3C00050B9F14857
:102BE000C079C0F3C00028B9EE48C07AC0F3C00075
:102BF00000286ED000250020EB490870EB480068E3
:102C000008280CDDE748407800F00F00E749097814
:102C1000093901228A40104060B96D1E0AE0E1487E
:102C20008078E2490978491E01228A40104008B99B
:102C30004FF0FF35681C002834D00025DB480068C1
:102C4000092810DA002408E0D64880780121A14044
:102C5000084008B1681C05B2641CD4480068401ED6
:102C6000A042F1DC1EE0002408E0CE48807801217B
:102C7000A140084008B1681C05B2641C082CF4DBB4
:102C800000240AE0C748407800F00F000121A1406D
:102C9000084008B1681C05B2641CC44800680938C3
:102CA000A042EFDC681C002857D0A800C01CBD491A
:102CB000085CC0F3C00000284FD0BD48FDF768FD98
:102CC000B9480078012848D1B9480178B04801E0F6
:102CD00043E01FE00175B6484178AD484175B448FE
:102CE0008178AB488175B248C178A948C175B048B0
:102CF0000179A7480176AE484179A548417613216C
:102D00001A300CF0ECFCA248816888470120A949E0
:102D1000087022E0A648FDF791FDA348007801283D
:102D20001BD1FF219A48017502214175A048817885
:102D3000974881759E48C1789548C1759C4801792E
:102D4000934801769A4841799148417613211A3087
:102D50000CF0C5FC8E4881688847012095490870B1
:102D6000002070BD30B587B004460D46924800681B
:102D700058B929462046FDF7FBFD894908700846E9
:102D8000007810B901208C490860FFF71BFF21462D
:102D90008A48FEF7E8F882480078D0B9834800797D
:102DA000B8B91C2168460CF0BCFC2A46214668468E
:102DB000FDF7F8FD002808DA7A48C069401C794917
:102DC000C8614FF0FF3007B030BD6846FFF75DFEC9
:102DD00035E076480079052816D11C2168460CF0AC
:102DE000A0FC2A4621466846FDF70BFF002807DABB
:102DF0006C48C069401C6B49C8614FF0FF30E2E786
:102E00006846FFF742FE1AE068480079062816D1A6
:102E10001C2168460CF085FC2A4621466846FDF7D1
:102E2000CBFF002807DA5F48C069401C5D49C861D4
:102E30004FF0FF30C7E76846FFF727FE00BF0020CE
:102E4000C1E710B5FDF76FFA002841D05748407927
:102E500018BB4F4841688847002839DDFDF766FAFE
:102E60004B4800F1140102694E480CF006FC48483A
:102E7000007C4C4948760846417EFFF773FF504876
:102E80000078FE2803DD00204D49087020E04C4802
:102E90000078401C4A4908701AE0444840790128EB
:102EA00016D101F069FA012812D14648FFF7ABFAB2
:102EB00070B9192243493B480CF09AFB1920394953
:102EC00048760846417EFFF74DFF00203E490870D6
:102ED000002010BD2DE9F0472DED0C8B84B0044689
:102EE00000210291039100200090019080468146CC
:102EF00082462778657C032D01DA002505E0284607
:102F000005EBD0714910C91CCDB2A67C9FED2F8A6C
:102F1000DFED2F0A9FED2F0AB0EE40BA08EE60BA3F
:102F2000DFED2D8ADFED2D0A9FED2A0AF0EE40BA83
:102F300048EEE0BA9FED2AAADFED250A9FED250AAB
:102F4000B0EE40DA0AEE60DADFED26AADFED230A02
:102F50009FED200AF0EE40DA4AEEE0DA9FED209A8B
:102F6000DFED1B0A9FED1B0AB0EE40CA09EE60CAF6
:102F7000DFED1C9ADFED190A9FED160AF0EE40CA4C
:102F800049EEE0CAE078A02834DCE07860282BE045
:102F9000880300106D030008A903000889020008D7
:102FA000D8000010A427001004000010D80400105E
:102FB000DB0000104E000010E4000010E0270010BD
:102FC000D900001078270010B400001092762CC0B1
:102FD0000000204300000000ABAA2AC00000C0424D
:102FE00092762C40ABAA2A4004DB0020A34948611A
:102FF000824601E04FF0010A2079A02807DC207901
:10300000602804DB00209D490861814601E04FF003
:1030100001096079A02808DC6079602805DB0020C0
:10302000964988614FF0010801E04FF000082079CF
:10303000A0280EDB207900EE100AF8EE400AB0EE70
:103040004B0A08EE200ABDEEC00A8C4880ED040A47
:1030500010E0207960280DDC207900EE100AF8EEEF
:10306000400AB0EE6B0A08EEA00ABDEEC00A834823
:1030700080ED040AE078A0280EDBE07800EE100A6C
:10308000F8EE400AB0EE4D0A0AEE200ABDEEC00A84
:103090007A4880ED050A10E0E07860280DDCE078E1
:1030A00000EE100AF8EE400AB0EE6D0A0AEEA00A31
:1030B000BDEEC00A714880ED050A6079A0280EDBDC
:1030C000607900EE100AF8EE400AB0EE4C0A09EE04
:1030D000200ABDEEC00A694880ED060A10E060795A
:1030E00060280DDC607900EE100AF8EE400AB0EEC0
:1030F0006C0A09EEA00ABDEEC00A604880ED060A1F
:1031000000BF07F0010088B35D480068401C5C49BF
:1031100008600846006801280DD1FFF79FF8594A5A
:10312000106051607F2D03DB7F205449886001E0EF
:103130005248856064E0FFF791F8CDE902015149FA
:10314000DDE902200B684968D31A60EB010040F604
:10315000C4120021D21A81410CD2002048490860D3
:103160007F2D04DB7F204549886002E006E043486C
:10317000856045E000204149886041E0C7F3800058
:1031800088B341480068401C3F4908600846006811
:1031900001280DD1FFF762F83C4A106051607F2D85
:1031A00003DB7F203549C86001E03448C56027E073
:1031B000FFF754F8CDE900013449DDE900200B6840
:1031C0004968D31A60EB010040F6C4120021D21AFC
:1031D00081410CD200202C4908607F2D04DB7F2028
:1031E0002649C86002E006E02448C56008E00020E7
:1031F0002249C86004E0002020498860C86000BF00
:1032000000BF402E03DA00201C49486014E0402E25
:1032100005DB802E03DA0120184948600CE0802E7F
:1032200005DBC02E03DA02201449486004E0C02EFA
:1032300002DB032011494860B8F1010F11D1B9F147
:10324000010F02D0BAF1010F0BD101201049087013
:10325000104890ED0C0ABDEEC00A084880ED060A41
:1032600002E000200A4908700448FFF742FC0020F1
:1032700004B0BDEC0C8BBDE8F0870000C427001043
:10328000E8000010F0000010EC000010F800001042
:10329000DA000010A004001030B50446002003E05E
:1032A000155C4D5D2554401C9842F9DB30BD30B5AE
:1032B00090B00346002008E0441894FBF2F502FBAE
:1032C00015441C5D0DF80040401C9042F4DB0020CA
:1032D00003E01DF800401C54401C9042F9DB10B084
:1032E00030BD70B5049C03E011F8015B00F8015B90
:1032F0001D1EA3F10103F7D103E012F8015B00F8F2
:10330000015B251EA4F10104F7D170BD70B5044620
:10331000002004E00D5C165C75402554401C98426A
:10332000F8DB70BD2DE9F047ADF5AB6D81468A46FF
:10333000174698463823FE4A39460DF5A460FFF734
:10334000ABFF002506E00DF5A460405D0DF20451D1
:1033500048556D1C1C2DF6DB002507E00DF5A4611A
:1033600005F11C00085C383948556D1C1C2DF5DB37
:10337000002524E0EF48415D1C220DF20450FFF7C8
:1033800096FFEC48415D1C220DF59D60FFF78FFF15
:103390001C2003460DF59D620DF2045100900DF5C1
:1033A0009660FFF79EFF05EB45016CAA02EB01104A
:1033B0003023E14A0DF59661FFF76EFF6D1C102D6D
:1033C000D8DB4023DD4A51465CA8FFF765FF0024A7
:1033D0000AE05CA8005D54A908555CA904F120002E
:1033E000085C4CA90855641C202CF2DB0025AAE0DF
:1033F0003023D34A4CA930A8FFF74EFFB8F1000F95
:1034000001D0284601E0C5F10F0000EB40006CA997
:1034100001EB0012302330A924A8FFF777FF002426
:1034200011E000260CE004EB440006EB400024A968
:10343000085C04EB440118AA02EB41018855761C94
:10344000062EF0DB641C082CEBDB002446E004EBCA
:10345000440218AB03EB4202527904EB44030DF132
:10346000600C1CF8133042EA430004EB440218AB32
:1034700003EB42025278D20004EB44030CEB43030B
:103480009B7842EA830204EB44030CEB4303DB78B2
:1034900042EA430204EB44030CEB43031B7942EA88
:1034A0000301002617E0A74A02EB841202EB001288
:1034B000525CC6F1030C012303FA0CF31A400AB163
:1034C000012200E0002204EB44030DF1600C0CEB40
:1034D00043039A55761C042EE5DB641C082CB6DBEE
:1034E00000240FE000260AE004EB440018A901EBD9
:1034F0004000805D06EB840110AA5054761C042E17
:10350000F2DB641C082CEDDB20238F4A10A908A8ED
:10351000FFF7C2FE202308AA54A96846FFF7F6FE6B
:10352000002404E04CA8005D54A90855641C202C1C
:10353000F8DB002404E01DF804004CA90855641CC5
:10354000202CF8DB6D1C102DFFF652AF2020034617
:1035500054AA4CA900903CA8FFF7C3FE40237B4A25
:103560003CA94846FFF798FE0DF5AB6DBDE8F08726
:1035700010B503785B100B700378DB075B0E4478A3
:1035800043EAA4034B7043789B075B0E847843EABD
:10359000E4038B7083785B075B0EC47843EA2413E3
:1035A000CB70C3781B075B0E047943EA64130B717D
:1035B0000379DB065B0E447943EAA4134B7143792C
:1035C0009B065B0E847943EAE4138B71837903F0E5
:1035D0007F03CB71002204E08B5C5B061B0E8B54D7
:1035E000521C082AF8DB10BD027802F0FE02437874
:1035F00042EAD3120A70427802F07E0252008378C7
:1036000042EA93124A70827802F03E029200C37836
:1036100042EA53128A70C27802F01E02D200037985
:1036200042EA1312CA70027902F00E0212014379C3
:1036300042EAD3020A71427902F00602520183790A
:1036400042EA93024A71827902F002029201C3793E
:1036500042EA53028A7170472DE9F041B2B0054643
:103660000E461746984669463846FFF781FF002404
:1036700036E02046E21704EB5272D210B25C2146CB
:10368000E31704EB5373DB10A4EBC303C3F1070C84
:10369000012303FA0CF31A400AB1012200E00022D0
:1036A00012AB1A552046E21704EB5272D2101DF8E5
:1036B00002202146E31704EB5373DB10A4EBC30392
:1036C000C3F1070C012303FA0CF31A400AB10122DB
:1036D00000E0002202AB1A55002022A90855641C04
:1036E000402CC6DB434602AA12A922A8FFF71AFE05
:1036F000002402E000202855641C082CFADB00247A
:103700002CE022A8005D40B3E21704EB5272D21005
:10371000AA5C2146E31704EB5373DB10A4EBC3034D
:10372000C3F1070C012303FA0CF31A4320460FE000
:1037300084190108BC1A0108BC190108EC19010818
:103740002C1A0108CC1A01085C1A01087C1A01081D
:10375000E31704EB5373DB10EA54641C402CD0DBFA
:1037600032B0BDE8F08170B58CB006460C46154607
:103770000020089009900A900B9004900590069004
:1037800007900090019002900390072D16DD2068AD
:103790000890A088ADF82400A0798DF826000F2DA0
:1037A00005DAEA1FE11D04A80BF022FF0FE0D4F8B0
:1037B00007000490D4F80B00059008E02A46214643
:1037C00008A80BF015FF24A103C9CDE904010123CA
:1037D00008AA04A96846FFF73FFF009830600198E7
:1037E00070600CB070BD70B506460D4600240FE049
:1037F0002CB92A5D1BA130460BF0FEFC07E02A5DC8
:1038000004EB44013144481E18A10BF0F5FC641C84
:10381000082CEDDB70BD30B589B004460D460020A4
:10382000079008900DF12300411E821E08ABCDE9E0
:103830000232CDE90410001F411E831E07AACDE904
:1038400000100CA128460BF003FE07982060089892
:10385000606009B030BD0000687A6E6A726F626F96
:103860007400000025303278000000002D25303231
:103870007800000025782D25782D25782D25782DA8
:1038800025782D25782D25782D25780070B50546CD
:103890000C46012004F093FC00BF612004F031FCD1
:1038A0000028FAD045F2555004F076FB284604F083
:1038B00076FB204604F076FB04F077FB04F07AFBFD
:1038C00070BD10B504F071FB10BD4FF480700E494F
:1038D000488380000D49088020200B4908830C494B
:1038E00008804002891E088002200A490880C00121
:1038F000088080200880042004490880891E0880F0
:103900000820088070470000000002401A0C0240A6
:103910001A0402401A0802401FB5002102910391C7
:10392000009101910124FEA0FEF7DAFCFEF796FC5F
:10393000643041F10001CDE9000129E01420FEF7D7
:1039400049FCF848FEF703FDA8B9F74800780128BC
:1039500005D10020F449087004F0010419E0FEF7D5
:103960007DFCCDE9020101A80DC80099891A984192
:103970000ED200240DE0FEF771FCCDE90201DDE975
:103980000231DDE90020D21A884101D2002400E092
:10399000D4E700BF204604B010BD70B58CB0002144
:1039A0000A910B910891099100250020059006903D
:1039B0000790142168460BF0B4FE01260024FEF7A0
:1039C0004DFC643041F10001CDE90801D748806821
:1039D00020F07F454E208DF814004A208DF8150008
:1039E0005F208DF81600280D8DF81700C5F30340F1
:1039F0008DF81800C5F303308DF81900C5F30320C6
:103A00008DF81A00C5F303108DF81B0005F00F00A8
:103A10008DF81C0003240FE005A8005D0A2805DAD4
:103A200005A8005D303005A9085504E005A8005D33
:103A3000373005A90855641C092CEDDBBCA168468C
:103A40000BF0CAFD05A968460BF0C6FD6846FEF7F7
:103A500047FC2AE01420FEF7BDFBB248FEF777FCD6
:103A6000B0B9B1480078012805D10020AE490870EE
:103A700006F001061AE0FEF7F1FBCDE90A01DDE9E7
:103A80000830DDE90A219A1A88410ED200260DE09D
:103A9000FEF7E4FBCDE90A01DDE90830DDE90A12B1
:103AA000591A904101D2002600E0D3E700BF14214B
:103AB00068460BF036FEFEF7D1FB643041F10001A1
:103AC000CDE908019948806820F07F454E208DF8A7
:103AD00014004A208DF815005F208DF81600280D7F
:103AE0008DF81700C5F303408DF81800C5F30330B7
:103AF0008DF81900C5F303208DF81A00C5F30310E3
:103B00008DF81B0005F00F008DF81C0003240FE05A
:103B100005A8005D0A2805DA05A8005D303005A972
:103B2000085504E005A8005D373005A90855641C58
:103B3000092CEDDB80A168460BF04EFD05A9684617
:103B40000BF04AFD6846FEF7CBFB2AE01420FEF797
:103B500041FB7448FEF7FBFBB0B9734800780128BD
:103B600005D100207049087006F001061AE0FEF742
:103B700075FBCDE90A01DDE90A32DDE90810C91A51
:103B800090410ED200260DE0FEF768FBCDE90A0158
:103B9000DDE90830DDE90A219A1A884101D20026C0
:103BA00000E0D3E700BF30460CB070BD70B58CB0FC
:103BB000044600210A910B910891099100260020EA
:103BC000059006900790142168460BF0AAFD012588
:103BD000FEF744FB643041F10001CDE908012068A3
:103BE0000590606806902089ADF81C0050A16846D9
:103BF0000BF0F2FC05A968460BF0EEFC6846FEF7F8
:103C00006FFB29E01420FEF7E5FA4648FEF79FFB1C
:103C1000B0B945480078012805D100204249087014
:103C200005F0010519E0FEF719FBCDE90A01DDE910
:103C30000A32DDE90810C91A90410DD200250CE0C6
:103C4000FEF70CFBCDE90A0109A80DC80899891AED
:103C5000984101D2002500E0D4E700BF1421684656
:103C60000BF05FFDFEF7FAFA643041F10001CDE997
:103C7000080120680590606806902089ADF81C0056
:103C80002DA168460BF0A8FC05A968460BF0A4FC22
:103C90006846FEF725FB29E01420FEF79BFA214831
:103CA000FEF755FBB0B920480078012805D1002067
:103CB0001D49087005F0010519E0FEF7CFFACDE9BE
:103CC0000A01DDE90A31DDE90820D21A88410DD266
:103CD00000250CE0FEF7C2FACDE90A0109A80BC8DD
:103CE000089A511A984101D2002500E0D4E700BF9C
:103CF00028460CB070BD70B58CB0044600210A9106
:103D00000B9108910991002600200690079014213C
:103D100001A80BF006FD0125FEF7A0FA64300FE0C4
:103D20004154000078270010B3000010F028001064
:103D300041542B4E414D450041542B4E414D4200C4
:103D400041F10001CDE9080120680690A088ADF896
:103D50001C00FDA101A80BF03FFC06A901A80BF077
:103D60003BFC01A8FEF7BCFA29E01420FEF732FA6A
:103D7000F748FEF7ECFAA8B9F6480078012805D113
:103D80000020F449087005F0010519E0FEF766FA15
:103D9000CDE90A0109A80BC8089A511A98410ED218
:103DA00000250DE0FEF75AFACDE90A01DDE90A32F5
:103DB000DDE90810C91A904101D2002500E0D4E7DE
:103DC00000BF142101A80BF0ACFCFEF747FA6430E9
:103DD00041F10001CDE9080120680690A088ADF806
:103DE0001C00DDA101A80BF0F7FB06A901A80BF050
:103DF000F3FB01A8FEF774FA29E01420FEF7EAF9B4
:103E0000D348FEF7A4FAB0B9D2480078012805D10A
:103E10000020D049087005F0010519E0FEF71EFAF0
:103E2000CDE90A01DDE90830DDE90A12591A9041AD
:103E30000DD200250CE0FEF711FACDE90A0109A820
:103E40000DC80899891A984101D2002500E0D4E7ED
:103E500000BF28460CB070BD30B58BB004460021C1
:103E60000891099106910791002005901421684658
:103E70000BF057FC0125FEF7F1F9643041F1000128
:103E8000CDE9060104F13000C0B28DF81400B4A1F0
:103E900068460BF0A1FB05A968460BF09DFB684640
:103EA000FEF71EFA2AE01420FEF794F9A848FEF760
:103EB0004EFAB0B9A7480078012805D10020A549DD
:103EC000087005F001051AE0FEF7C8F9CDE9080110
:103ED000DDE90831DDE90620D21A88410ED200253D
:103EE0000DE0FEF7BBF9CDE90801DDE90831DDE9B8
:103EF0000620D21A884101D2002500E0D3E700BF96
:103F000028460BB030BD30B58BB004460021089177
:103F100009910691079100200590142168460BF045
:103F200000FC0125FEF79AF9643041F10001CDE96A
:103F3000060104F13000C0B28DF814008AA1684671
:103F40000BF04AFB05A968460BF046FB6846FEF7F6
:103F5000C7F92AE01420FEF73DF97D48FEF7F7F98E
:103F6000B0B97C480078012805D100207949087053
:103F700005F001051AE0FEF771F9CDE90801DDE968
:103F80000831DDE90620D21A88410ED200250DE065
:103F9000FEF764F9CDE90801DDE90831DDE9062025
:103FA000D21A884101D2002500E0D3E700BF28469D
:103FB0000BB030BD30B58BB004460021089109919B
:103FC0000691079100200590142168460BF0A9FB8B
:103FD0000125FEF743F9643041F10001CDE9060106
:103FE00004F13000C0B28DF8140061A168460BF0F6
:103FF000F3FA05A968460BF0EFFA6846FEF770F988
:104000002AE01420FEF7E6F85148FEF7A0F9B0B90F
:1040100050480078012805D100204E49087005F06D
:1040200001051AE0FEF71AF9CDE90801DDE90831CA
:10403000DDE90620D21A88410ED200250DE0FEF7F8
:104040000DF9CDE90801DDE90831DDE90620D21AD4
:10405000884101D2002500E0D3E700BF28460BB01D
:1040600030BD30B58BB0044600210891099106910E
:10407000079100200590142168460BF052FB0125A2
:10408000FEF7ECF8643041F10001CDE9060104F1DE
:104090003000C0B28DF8140037A168460BF09CFACE
:1040A00005A968460BF098FA6846FEF719F92AE068
:1040B0001420FEF78FF82648FEF749F9B0B92548D5
:1040C0000078012805D100202249087005F001057B
:1040D0001AE0FEF7C3F8CDE90801DDE90831DDE9B2
:1040E0000620D21A88410ED200250DE0FEF7B6F860
:1040F000CDE90801DDE90831DDE90620D21A884161
:1041000001D2002500E0D3E700BF28460BB030BD48
:1041100030B58BB0044600210891099106910791B2
:1041200000200590142168460BF0FBFA0125FEF7EC
:1041300095F8643041F10001CDE9060104F1300049
:10414000C0B28DF814001BE041542B50494E45007D
:1041500078270010B300001041542B50494E420004
:1041600041542B424155440041542B50494F31009A
:1041700041542B4455414C0041542B484947480079
:10418000B0A168460BF028FA05A968460BF024FA9E
:104190006846FEF7A5F82AE01420FEF71BF8AB48A6
:1041A000FEF7D5F8B0B9AA480078012805D100205B
:1041B000A749087005F001051AE0FEF74FF8CDE9B0
:1041C0000801DDE90630DDE90812591A90410ED2E6
:1041D00000250DE0FEF742F8CDE90801DDE90831E0
:1041E000DDE90620D21A884101D2002500E0D3E79C
:1041F00000BF142168460BF094FAFEF72FF86430E4
:1042000041F10001CDE9060104F13000C0B28DF8A2
:10421000140090A168460BF0DFF905A968460BF081
:10422000DBF96846FEF75CF829E01420FDF7D2FFC1
:104230008648FEF78CF8A8B985480078012805D192
:1042400000208349087005F0010519E0FEF706F823
:10425000CDE9080107A80DC80699891A98410ED220
:1042600000250DE0FDF7FAFFCDE90801DDE9083191
:10427000DDE90620D21A884101D2002500E0D4E70A
:1042800000BF28460BB030BD30B58BB004460021CE
:104290000891099106910791002005901421684624
:1042A0000BF03FFA0125FDF7D9FF643041F1000121
:1042B000CDE9060104F13000C0B28DF8140067A109
:1042C00068460BF089F905A968460BF085F9684640
:1042D000FEF706F82AE01420FDF77CFF5B48FEF7A6
:1042E00036F8B0B95A480078012805D1002058495D
:1042F000087005F001051AE0FDF7B0FFCDE90801EF
:10430000DDE90831DDE90620D21A88410ED2002508
:104310000DE0FDF7A3FFCDE90801DDE90831DDE996
:104320000620D21A884101D2002500E0D3E700BF61
:1043300028460BB030BD10B50124FFF7EDFAFFF7AA
:104340002CFB04400120FFF7DEFD04400620FFF7B0
:1043500083FD04400020FFF72DFE04400020FFF7FE
:1043600080FE04400020FFF7D3FE04400120FFF749
:104370008BFF0440204610BD10B500243348FDF7E4
:10438000E6FF002852D13248007801284ED10020A3
:104390002F4908702D48C07843280BD12B4800794D
:1043A0004F2807D1294840794E2803D127488079E2
:1043B00045280FD02548C078432811D123480079DB
:1043C0004F280DD1214840794E2809D11F488079C6
:1043D000422805D10124012022490870204610BD41
:1043E0001A48C0784C280BD118480079532807D1B7
:1043F00016484079542803D11448807945280FD0B5
:104400001248C0784C2811D11048007953280DD19A
:104410000E484079542809D10C488079422805D1AA
:10442000002400200F4908702046D8E70D48007886
:10443000012800D1D3E70B48007808B90020CEE767
:104440002046CCE741542B494D4D450078270010BC
:10445000B300001041542B494D4D420041542B4EA6
:104460004F544900070100101CB50121880503F0D5
:10447000DCFF4FF44060009002208DF805008DF8BD
:10448000040000208DF8070001208DF80600694621
:10449000F84803F0ADFA04220A21F64803F033FB92
:1044A00004220B21F34803F02EFB1CBD1FB5002096
:1044B000ADF804004FF48060ADF80A000001ADF8DB
:1044C0000C00ED4800906946EC4803F07AFB0121AE
:1044D000EA4803F0F2FB0121E84803F01AFC1FBD93
:1044E00070B5044600BF4FF40031E44803F00BFD03
:1044F0000028F8D10121E14803F0EBFB00BFE049BF
:10450000DE4803F0DEFC0028F9D00022D021DB4891
:1045100003F0F7FB00BFDB49D84803F0D2FC0028CA
:10452000F9D02146D54803F070FC00BFD549891C5D
:10453000D24803F0C6FC0028F8D00121CF4803F090
:10454000C8FB00BFCE49CD4803F0BBFC0028F9D022
:104550000122D021C94803F0D4FB00BFC849491C3F
:10456000C64803F0AEFC0028F8D000BFC4493F3174
:10457000C24803F0A6FC0028F8D0C04803F047FC6E
:1045800005460021BD4803F0C4FB0121BB4803F0F0
:10459000ACFB284670BD10B54FF40060B5491A3128
:1045A00008800A20FDF72DFE4FF48060B1491831D4
:1045B00008800A20FDF725FE4FF40060AD49183150
:1045C00008800A20FDF71DFE10BD10B5FFF7E3FFC0
:1045D00010BD10B54FF40060A649183108800A20BC
:1045E000FDF70FFE4FF48060A249183108800A20C1
:1045F000FDF707FE4FF400609E491A3108800A203B
:10460000FDF7FFFD4FF480609A491A3108800A20B7
:10461000FDF7F7FD10BD10B54FF400609549183156
:1046200008800A20FDF7EDFD4FF4806091491831B4
:1046300008800A20FDF7E5FD8E481030006800F480
:1046400000641CB1FFF7A7FF002010BD4FF480608D
:1046500088491A3108800A20FDF7D3FD0120F4E7CC
:1046600070B5054671B6002421E005FA04F000F0AB
:10467000800028B14FF400607E491831088004E0C2
:104680004FF400607B491A3108800A20FDF7B9FD1C
:104690004FF480607749183108800A20FDF7B1FD9A
:1046A0004FF4806073491A310880601CC4B2082C32
:1046B000DBDB0A20FDF7A5FDFFF7ADFF064661B67F
:1046C000304670BD70B50826002471B64FF4006006
:1046D0006849183108801FE00A20FDF792FD4FF469
:1046E000806064491A3108800A20FDF78AFD4FF482
:1046F00080606049183108800A20FDF782FD60065D
:10470000040E5C481030006800F400650DB144F000
:1047100001040A20FDF775FD301EA6F10101CEB29D
:10472000DAD14FF4806053491A3108800A20FDF72E
:1047300068FD61B6204670BD10B504462CB94FF433
:1047400000604C491A31088004E04FF40060494988
:10475000183108800A20FDF754FD4FF48060454968
:10476000183108800A20FDF74CFD4FF48060414964
:104770001A3108800A20FDF744FD10BD2DE9F041F3
:1047800005460E461746FFF724FF05F0FE00FFF72B
:1047900067FF8046B8F1000F02D10020BDE8F0812C
:1047A00000240AE0305DFFF75BFF8046B8F1000FA0
:1047B00001D12046F2E7601CC4B2381EA7F1010106
:1047C000CFB2EFD1FFF7E7FE0A20FDF71AFD204632
:1047D000E4E72DE9F04107460D461646FFF7F9FEDE
:1047E00047F00100FFF73CFF8046B8F1000F02D10F
:1047F0000020BDE8F08100240CE0FFF763FF28559E
:104800000020FFF799FF0A20FDF7FBFC701EC6B2DF
:10481000601CC4B2012EF0DCFFF754FF28550120C4
:10482000FFF78AFF0A20FDF7ECFCFFF7B4FE0A2031
:10483000FDF7E7FC601CC4B22046DAE770B5044619
:10484000FFF7C7FE04F0FE00FFF70AFF05460DB9AB
:10485000002070BDFFF79FFE0A20FDF7D2FC01206B
:10486000F7E72DE9F05F80460C46154665B9BDE8CF
:10487000F09F000000040240503403000058004044
:10488000010003008200070071B62046E11704EB27
:104890005171C910A4EBC101C1F10801CFB2AF42FF
:1048A00000D9EFB2002651E0FFF793FE2112A022BB
:1048B00002EB4101C8B2FFF7D3FEA246E11704EBB9
:1048C00011610912A4EB0121C8B2FFF7C9FE05E08E
:1048D00098F80000FFF7C4FE08F10108381EA7F1A0
:1048E0000101CFB2F4D1FFF756FE4FF0000BD946CD
:1048F00016E00A20FDF7A5FC09F1010000F0FF0910
:10490000FFF767FE2112A02202EB4101C8B2FFF7B8
:10491000A7FE8346FFF73FFEBBF1000F00DD02E07C
:10492000B9F10A0FE5DB00BFB9F10A0F01D161B699
:104930009DE73E44E01984B2AE4200D307E0A81BD5
:10494000082801D9082701E0A81BC7B2ACE700BFBF
:1049500061B600BF8BE72DE9F04105460C461746CE
:104960004FF0000871B6FFF734FE2112A02202EBCF
:104970004101C8B2FFF774FE2646E11704EB11614E
:104980000912A4EB0121C8B2FFF76AFEFFF721FE6E
:104990002112A12202EB4101C8B2FFF761FE4FF0E4
:1049A000000808E0FFF78EFE28700020FFF7C4FE25
:1049B0006D1C08F10108781E4045F3D8FFF782FE10
:1049C00028700120FFF7B8FEFFF7E5FD61B6BDE8EE
:1049D000F0812DE9F04104460E46174671B6FFF707
:1049E000F8FD04F0FE00FFF73BFE054605B91DE0AB
:1049F0003046FFF735FE054605B917E0FFF7E9FD3C
:104A000044F00100FFF72CFE054605B90EE0FFF764
:104A100059FE38700120FFF78FFEFFF7BCFD0A201A
:104A2000FDF7EFFB61B60120BDE8F081FFF7B3FDB4
:104A30000A20FDF7E6FB61B60020F5E7F8B506466B
:104A40000C4615468DF800408DF8015071B60222D3
:104A500069463046FFF792FE074661B6002F01DD3A
:104A60000120F8BD0020FCE72DE9F84F80460C46F8
:104A700015460DB9BDE8F88F71B62046E11704EB75
:104A8000D1614911A4EB4111C1F12001CFB2AF4274
:104A900000D9EFB20026BA4652E0FFF79AFDA020F7
:104AA000FFF7DEFDA346E11704EB1161C1F3072018
:104AB000FFF7D6FDE11704EB11610912A4EB012108
:104AC000C8B2FFF7CDFD05E098F80000FFF7C8FD7C
:104AD00008F10108381EA7F10101CFB2F4D1FFF7A8
:104AE0005AFD00200090814612E00A20FDF7A9FB44
:104AF00009F1010000F0FF09FFF76BFDA020FFF7AF
:104B0000AFFD0090FFF747FD0098002800DD02E0B0
:104B1000B9F10A0FE9DB00BFB9F10A0F01D161B6A3
:104B2000A8E7564404EB0A0084B2AE4200D308E082
:104B3000A81B202801D9202701E0A81BC7B2BA462C
:104B4000ABE700BF61B600BF94E72DE9F041054631
:104B50000C4617464FF0000871B6FFF73AFDA0204B
:104B6000FFF77EFD2646E11704EB1161C1F3072034
:104B7000FFF776FDE11704EB11610912A4EB0121A7
:104B8000C8B2FFF76DFDFFF724FDA120FFF768FD18
:104B90004FF0000808E0FFF795FD28700020FFF7B0
:104BA000CBFD6D1C08F10108781E4045F3D8FFF7D6
:104BB00089FD28700120FFF7BFFDFFF7ECFC61B60F
:104BC000BDE8F08110B501211F2003F0FBFB01219E
:104BD000084603F03BFC0121084603F026FC0121B6
:104BE000022003F022FC0121082003F01EFC012119
:104BF000042003F01AFC0121102003F016FC01210F
:104C0000202003F012FC0121080403F01FFC012105
:104C1000480403F01BFC0121880403F017FC012168
:104C2000402003F002FC0121C80303F0FEFB012138
:104C3000880403F0FAFB0121080203F007FC0121BC
:104C4000880303F003FC10BD08B500F09DFC4FF491
:104C5000C06003F0C1F927208DF8000001208DF815
:104C6000010002208DF8020001208DF80300684643
:104C700003F0B7F908BD1CB50320009002208DF8A1
:104C8000040000208DF8060002208DF805000020A9
:104C90008DF807006946F84802F0AAFE02220021BA
:104CA000F54802F030FF02220121F34802F02BFF09
:104CB000C02000906946F04802F09AFE02220621C8
:104CC000ED4802F020FF02220721EB4802F01BFF13
:104CD000C02000906946E94802F08AFE02220621BF
:104CE000E64802F010FF02220721E44802F00BFF21
:104CF0004FF4004000906946DF4802F079FE08203A
:104D000000906946DD4802F073FE01220F21DA4867
:104D100002F0F9FE01220321D84802F0F4FE4FF41C
:104D2000D44000906946D64802F062FE0122092173
:104D3000D34802F0E8FE01220B21D14802F0E3FE45
:104D400001220D21CE4802F0DEFE01220E21CC48C8
:104D500002F0D9FE4FF4007000906946C74802F097
:104D600047FE03220921C54802F0CDFE4FF48070B2
:104D700000906946C14802F03BFE03220821BF486B
:104D800002F0C1FE0C2000906946BB4802F030FEE4
:104D900003220221B84802F0B6FE03221146B648AB
:104DA00002F0B1FE032000908DF804006946B3487C
:104DB00002F01EFE02208DF804004FF4E050009037
:104DC0006946AD4802F014FE0A221146AA4802F0D4
:104DD0009AFE0A220B21A84802F095FE0A220C2115
:104DE000A54802F090FE4FF4E05000906946A548B7
:104DF00002F0FEFD06220A21A24802F084FE0622ED
:104E00000B21A04802F07FFE06220C219D4802F0F3
:104E10007AFE4FF4D850009069469B4802F0E8FDB6
:104E200007220821984802F06EFE072209219648C1
:104E300002F069FE07220B21934802F064FE07226C
:104E40000C21914802F05FFE4FF4007000900020AA
:104E50008DF804008DF8060003208DF8050002206F
:104E60008DF807006946844802F0C2FD4FF4807057
:104E7000009001208DF8040000208DF8060002202B
:104E80008DF8050000208DF8070069467A4802F089
:104E9000AFFD4FF44060009001208DF80400022027
:104EA0008DF8050001208DF8060000208DF8070020
:104EB0006946724802F09CFD4FF48040009001204A
:104EC0008DF8040002208DF8050000208DF8060002
:104ED00001208DF807006946684802F089FD4EF20E
:104EE0000120009000208DF8040002208DF80500BC
:104EF00000208DF806008DF807006946614802F031
:104F000077FD4FF4C170009001208DF8040002205D
:104F10008DF8050000208DF806008DF80700694621
:104F2000584802F065FD0120009000208DF8040033
:104F300002208DF8050000208DF8060001208DF874
:104F400007006946504802F053FD40F20E400090C1
:104F500001208DF8040002208DF8050000208DF856
:104F600006008DF807006946474802F041FD40F20F
:104F7000FF50009001208DF8040002208DF80500FC
:104F800000208DF806008DF8070069463C4802F0C5
:104F90002FFD202000906946374802F029FD20208F
:104FA00000906946354802F023FD1CBD7FB5002105
:104FB000364A11605160684603F06FF94FF47A7217
:104FC0000198B0FBF2F1B1F1807F00D31DE021F038
:104FD0007F40401E4FF0E022506150170F22002802
:104FE00007DA13071D0E2A4B00F00F04241F1D556E
:104FF00003E013071C0E274B1C5400BF00204FF08A
:10500000E02290610720106100BF7FBD38B500220B
:10501000214B1B68214C23601F4B1B1D1B686360C9
:105020001D4B08331B68A360002022E01B4B13F8C4
:1050300020308DF80030194B33F820301B0A8DF8E2
:105040000130164B53F820301B0C8DF80230134BF7
:1050500053F820301B0E8DF80330002106E01DF8B8
:1050600001501346521C0E4CE554491C0429F6DB32
:10507000401C0328DADB38BD000002400004024077
:105080000010024000080240000C0240A80000107E
:1050900018ED00E000E400E0107AFF1FF028001097
:1050A000FC28001010B50C2267496848FEF75BFB2E
:1050B00010BD10B502F0FCFB01280CD002F00AFA7A
:1050C00002F076FB552002F0A4FB02F0DBFB02F0BD
:1050D0007CFB02F00CFA10BD10B502F0E9FB0128D0
:1050E0000CD102F0F7F902F063FBAA2002F091FB69
:1050F00002F0C8FB02F069FB02F0F9F910BDF8B547
:105100000026FEF7E2FBFDF74BF800F07EF900F019
:10511000B0FE00F0C3F9FFF758FA00F045FB00F0CD
:1051200060FA00F0E5FA4FF4E130FDF7BBF8002536
:1051300000E06D1C46488542FBDB00F091FFD8B9CA
:1051400000204449097821F00101491C414A1170AD
:105150000221414A118000BF00E0401C3F498842C3
:10516000FBDB02213C4A921C1180002000E0401C25
:105170003A498842FBDB00BF61B6FCF769F9FDF7ED
:1051800007FD4FF47A710420FEF780FB3448007865
:1051900018BB0024FFF7CFF80646012E02D1FBF71B
:1051A000CBFF19E02B48007820F00200801C294931
:1051B0000870022028490880002400E0641C274869
:1051C0008442FBDB02202449891C0880002400E083
:1051D000641C22488442FBDB00BF2248007903287C
:1051E00002D004281ED111E000201F4908701F487A
:1051F0001F4B204A012100901F4804F0EFFCFFF7ED
:1052000033F9FFF753F900F06CFF0CE00120164969
:1052100008701A481A4B1B4A012100901A4808F0DE
:1052200086FB00E000BF00BFF8BD10B571B6FFF708
:10523000C9FCFFF709FDFFF71EFDFFF7B7FEFFF7FB
:105240005EFF002010BD0000FC2800100E010010C1
:1052500080F0FA02000100101808024080969800C1
:1052600017010010D804001016010010E80100100A
:10527000680200108C340010FC290010C0010010DE
:105280001403001084010010CC37001010B5FFF794
:10529000CCFFFCF736FA002010BD000070B50446C4
:1052A00000251AE02020F749488304F0800018B157
:1052B0002020F549088003E02020F349891C08805C
:1052C0000120FCF79EFF2020EE4908830120FCF717
:1052D00098FF6006040E681CC5B2082DE2DB202092
:1052E000E849088370BD2DE9F04107460C46154694
:1052F0001E460020FFF7D2FF0020FFF7CFFF00205F
:10530000FFF7CCFF0020FFF7C9FF06F01F0040F0B9
:10531000E0084046FFF7C2FF2846FFF7BFFF2046E0
:10532000FFF7BCFF3846FFF7B9FFFF20FFF7B6FFD6
:10533000FF20FFF7B3FFFF20FFF7B0FFFF20FFF7CD
:10534000ADFFBDE8F08110B51F2300221146642097
:10535000FFF7C9FF10BD10B500221146CB4803F07E
:1053600055FF0021C94803F0E3FC10BD10B5002231
:105370000421C64803F04AFF0021C44803F0D8FCCA
:1053800010BD10B504467F2C00D97F24C0480068AA
:10539000C0490968401A60437F21B0FBF1F0BD4964
:1053A00009684418C4F1820404B9012401220021CF
:1053B000B64803F02BFF00220421B44803F026FF77
:1053C0002146B24803F019FE0121B04803F0B0FCB9
:1053D00010BD10B504467F2C00D97F24C4F182048F
:1053E00004B9012401220421A84803F00FFF002280
:1053F0001146A64803F00AFF2146A44803F0FFFD2A
:105400000121A24803F094FC10BD10B588B0A24859
:1054100000684008400042F21071B0FBF1F0401EFD
:1054200084B281200690ADF814400020ADF81C0035
:10543000ADF8160005A9954803F0F1FB7020ADF812
:1054400000000120ADF8020002900020ADF80C0031
:1054500069468E4803F0B1FC7020ADF800000220D0
:10546000ADF80C006946894803F06EFC08218748B6
:1054700003F04CFC0021854803F0F3FD0021834834
:1054800003F0F8FD00221146804803F0BFFE002221
:1054900004217E4803F0BAFE08B010BD30B589B0D3
:1054A00000244FF480707D4908838000488300BF4A
:1054B0007948006846F2A811B0FBF1F50795ADF800
:1054C00018400020ADF82000ADF81A0006A9744875
:1054D00003F0A5FB6020ADF804000120ADF8060044
:1054E000002003900220ADF8100001A96C4803F0E1
:1054F0002BFC00216A4803F0B4FD0121684803F049
:1055000017FC09B030BD70B504460D4625B14FF407
:1055100080606249088303E04FF480605F494883FC
:1055200000EE104AB8EE400A5E48D0ED000A20EEC8
:10553000200ABCEEC00A10EE101A594803F05DFDB7
:1055400070BD5948006800F0010008B101207047A3
:105550000020FCE701205549087006200121814008
:105560004209920002F1E022C2F8001100BF704728
:105570000620012181404E4A430942F8231000BF12
:1055800000204A49087070470EB50021022003F040
:1055900061FA0120019000208DF8080008208DF8A4
:1055A000090001208DF80A0001A801F0D5FE0120B4
:1055B00001F034FF06208DF8000002208DF8010074
:1055C0008DF8020000208DF80300684602F009FD06
:1055D000062001218140374A430942F8231000BFC9
:1055E0000EBD30B589B000BF00242B48006849F2D9
:1055F0007041B0FBF1F0451E0795ADF81840002052
:10560000ADF82000ADF81A0006A92B4803F007FBFF
:105610006020ADF804000120ADF806001E480068C7
:1056200049F27041B0FBF1F000EB80008000642192
:10563000B0FBF1F003900020ADF8100001A91E4866
:1056400003F082FB00211C4803F00BFD00211A48E7
:1056500003F06EFB09B030BD10B50121164803F010
:1056600067FB10BD10B50021134803F061FB10BDAE
:105670000146C1EB01108200D01702EB105000135D
:105680007047000000000240180402400040014042
:10569000C0000010BC000010940000100010024078
:1056A00000480140C400001010080240BA00001079
:1056B00080E100E080E200E0004401400146080390
:1056C0003C2290FBF2F07047EC48D0ED430A60EECC
:1056D000800AFDEEE00A10EE900A7047E749D1ED2E
:1056E000430A00EE100AB8EEC01A81EE200A704795
:1056F00000B58BB00021E24801F03FFC0020019092
:105700004FF480700490002003904FF4803002909A
:1057100001A801F01BFC002005908DF818008DF801
:1057200019000790099001208DF8280005A9D44898
:1057300001F0DDFB022301220821D14801F05DFCCC
:105740000121CF4801F019FC0BB000BD10B50223B8
:1057500001220821CA4801F050FCC94801F0A9FC07
:1057600000BF0221C64801F0C5FD0028F9D0C44899
:10577000C06C84B22411E0B210BD10B50223012226
:105780000921BF4801F039FCBD4801F092FC00BF7F
:105790000221BB4801F0AEFD0028F9D0B848C06C2A
:1057A00084B22411E0B210BD00B585B00420B54923
:1057B00008800220891E08800020ADF800004FF408
:1057C0008270ADF802000020ADF80400ADF80600CC
:1057D000ADF808004815ADF80A001020ADF80C002F
:1057E0000020ADF80E000720ADF810006946A6486D
:1057F00002F04CFF0121A44803F02BF805B000BDD6
:1058000010B5044600BF02219F4803F0DAF80028D3
:10581000F9D021469C4803F09DF800BF01219A4829
:1058200003F0CFF80028F9D0974803F090F8C0B201
:1058300010BD2DE9F04104460E461746002571B60D
:105840008020924908800520FCF7DBFC4FF4807033
:105850008E4908808020891E08804FF000081DE0D6
:105860006D108A480A38006800F40070B0F5007FB7
:1058700001D145F400454FF480708449891E0880A9
:105880000120FCF7BEFC4FF48070804908800120A5
:10589000FCF7B7FC08F1010000F0FF08B8F1100FA9
:1058A000DEDB61B6680B3870C5F30310207005F0BD
:1058B0000F00401C30702078102839D2DFE800F04B
:1058C000080B0E1114171A1D202326292C2F3235F0
:1058D0005F2020702FE0492020702CE04B202070AA
:1058E00029E04D20207026E04F20207023E0512039
:1058F000207020E0552020701DE0592020701AE013
:105900006520207017E06720207014E05D20207073
:1059100011E0692020700EE06D2020700BE07120F6
:10592000207008E07520207005E07920207002E0EA
:105930005D20207000BF00BFBDE8F08100207047EF
:105940002DE9F0414FF00008FFF717FF07465048D8
:1059500001680068401C4E4A10604E4840F82170B3
:1059600010460068052805D1002011460860012076
:1059700049490870002500264748007800285AD079
:10598000012412E0434850F82400424951F8251000
:10599000884200DD25463F4850F824003D4951F833
:1059A0002610884200DA2646641C052CEADB3948BA
:1059B00050F8250039490968394A1268114488426B
:1059C00004DD36480068334941F82500314850F875
:1059D000260032490968324A1268891A884204DA74
:1059E0002E4800682B4941F826002A4800682B49B8
:1059F0000860012408E0274850F824002749096876
:105A0000084426490860641C052CF4DB2348006820
:105A1000052190FBF1F021490860084607780068ED
:105A20008B2819DA08460068852801DC4FF0020847
:105A30004FF0010810E017490968164A52681144EE
:105A4000144A92681144134AD2688818C11700EBAF
:105A500091718910114A116071B6084880F82D7152
:105A600000EE107AB8EE400ADFED0E0A20EE200AB2
:105A700080ED4D0A61B64046BDE8F081D8040010C3
:105A8000002001401A0C0240003C00401A0802406D
:105A90001801001008290010240100101C0100103A
:105AA000200100106666CA3D30B587B005460C4639
:105AB0000020ADF804004FF6FF7002900020ADF812
:105AC0000C00ADF8060001A9284603F0A8F8002351
:105AD0001A460321284603F016FE0020ADF81000F8
